:100000000C9447080C948E080C948E080C948E085F
:100010000C948E080C948E080C948E080C948E0808
:100020000C948E080C948E080C9497240C94D32373
:100030000C947D2A0C948E080C948E080C948E08D7
:100040000C948E080C948E080C948E080C948E08D8
:100050000C94261A0C94212A0C948E080C948E0869
:100060000C948E080C948E080C948E080C948E08B8
:100070000C948E080C948E080C948E080C948E08A8
:100080000C948E080C948E080C948E080C948E0898
:100090000C948E080C948E080C948E080C948E0888
:1000A0000C948E080C948E080C948E08D40AD40AF2
:1000B0000F0B0F0B530BF20DF20DF20D730BF20D34
:1000C000600C600CF20D020D6D0C6D0C6D0C6D0C66
:1000D0006D0C6D0C6D0C6D0C6D0C6D0C6D0C6D0C58
:1000E0006D0C6D0C6D0C6D0C7E0CA70CAC0CB30C78
:1000F000CB0C0D100F101A10111013101510171033
:1001000019101C101E1020102B1022102410261065
:1001100028102A102D10E2210922B5230922B52327
:1001200055227822B5237D238C235126512664261F
:1001300064265A26642664266426512651265F26A4
:10014000642664265F2629001E001F00200021006F
:100150002200230024002500260027002D002E0069
:100160002A002B0014001A000800150017001C00BC
:1001700018000C00120013002F0030003100015154
:1001800004001600070009000A000B000D000E0015
:100190000F003300340000002800E1001D001B00A8
:1001A0000600190005001100100036003700380065
:1001B00000000000E500E000E300E20000000000B5
:1001C0002C000000000000003900E7000251000090
:1001D000C25C35003A003B003C003D003E003F0061
:1001E0004000410042004300440045004C00010033
:1001F0002400250026000100010001004B005200F0
:100200004E00460047004800010001002100220086
:100210002300010001004A00500051004F004A0035
:100220004B000000010001001E001F002000010023
:1002300001004D00010001004D004E0000000000D3
:100240000100010001000100000000002700000083
:100250000000000001000251010000000100010047
:100260000100010001000100010001000100010086
:100270000100010001000100005CBF5CBE5CBD5CD0
:10028000C05C01000100010001000100010001004B
:10029000010001000100C25CC35CC55CC75CC95CB5
:1002A000CB5CCD5CCE5CCF5CD05C0100010000007B
:1002B00001000100C45CC65CC85CCA5CCC5CD15C5B
:1002C000D25CD35CD45C010000000000010001009E
:1002D000010001000000000001000000000000001B
:1002E000010001000100000001007267626C696793
:1002F00068742064697361626C65205B4545505287
:100300004F4D5D3A207267626C696768745F636F16
:100310006E6669672E656E61626C65203D2025758D
:100320000A007267626C6967687420656E61626C4E
:1003300065205B454550524F4D5D3A207267626CB7
:10034000696768745F636F6E6669672E656E616268
:100350006C65203D2025750A007267626C696768CC
:100360007420746F67676C65205B454550524F4D34
:100370005D3A207267626C696768745F636F6E666E
:1003800069672E656E61626C65203D2025750A00E7
:1003900044454255473A2064697361626C65642E36
:1003A0000A0044454255473A20656E61626C6564B7
:1003B0002E0A006261636B6C6967687420696E6302
:1003C00072656173653A2025750A006261636B6C22
:1003D000696768742064656372656173653A202596
:1003E000750A006261636B6C696768742064697385
:1003F00061626C650A006261636B6C696768742096
:10040000656E61626C650A006261636B6C69676846
:100410007420746F67676C653A2025750A00626105
:10042000636B6C6967687420737465703A20257516
:100430000A000000000000000000000000010102AE
:1004400003040506080A0C0F1114181C2024292E79
:1004500033393F464C535B626A7179818A929AA222
:10046000AAB2B9C1C8CFD5DCE1E7EBF0F4F7FAFCEA
:10047000FDFEFFFEFDFCFAF7F4F0EBE7E1DCD5CF83
:10048000C8C1B9B2AAA29A928A8179716A625B5391
:100490004C463F39332E2924201C1814110F0C0A06
:1004A000080605040302010100000000000000002E
:1004B0000000000000000000000000000101010138
:1004C000010101010102020202020202020303030E
:1004D00003030303040404040405050505050606D7
:1004E00006060607070707080808080909090A0A8F
:1004F0000A0B0B0B0C0C0C0D0D0D0E0E0E0F0F102E
:1005000010101111121213131414151516161717B3
:10051000181819191A1A1B1C1C1D1D1E1F1F20211B
:100520002122232324252526272828292A2B2C2C61
:100530002D2E2F30313132333435363738393A3B7E
:100540003C3D3E3F404142434445464748494B4C71
:100550004D4E4F50525354555758595A5C5D5E603A
:100560006163646567686A6B6C6E6F7172747677CD
:10057000797A7C7D7F8182848687898B8D8E90922B
:10058000949597999B9D9FA1A2A4A6A8AAACAEB052
:10059000B2B4B6B9BBBDBFC1C3C5C8CACCCED0D337
:1005A000D5D7DADCDEE1E3E6E8EAEDEFF2F4F7F9DD
:1005B000FCFF7267626C69676874206D6F64652008
:1005C0005B4E4F454550524F4D5D3A2025750A0010
:1005D0007267626C69676874206D6F6465205B4543
:1005E0004550524F4D5D3A2025750A007267626C86
:1005F000696768742073657420687376205B4E4F5A
:10060000454550524F4D5D3A2025752C25752C25BA
:10061000750A007267626C6967687420736574207C
:10062000687376205B454550524F4D5D3A202575E5
:100630002C25752C25750A007267626C69676874D1
:10064000207261696E626F772073657420687376BB
:100650003A2025642C25642C25642C25750A00FF7E
:10066000AA7F55407267626C696768742074696D0F
:10067000657220656E61626C65642E0A0072676245
:100680006C696768742074696D6572206469736150
:10069000626C652E0A002223252628292A2C2D2F5C
:1006A0003032333536383A3B3D3E40424345474988
:1006B0004A4C4E5051535557595A5C5E60626466BD
:1006C00068696B6D6F71737577797B7D7F818385C9
:1006D00087898A8C8E90929496989A9C9E9FA1A3CB
:1006E000A5A7A8AAACAEAFB1B3B4B6B8B9BBBCBEEF
:1006F000BFC1C2C3C5C6C7C9CACBCCCDCED0D1D26B
:10070000D2D3D4D5D6D7D7D8D9D9DADADBDBDBDC6C
:10071000DCDCDCDCDDDDDDDDDCDCDCDCDCDBDBDB18
:10072000DADAD9D9D8D7D7D6D5D4D3D2D2D1D0CE78
:10073000CDCCCBCAC9C7C6C5C3C2C1BFBEBCBBB97D
:10074000B8B6B4B3B1AFAEACAAA8A7A5A3A19F9EFB
:100750009C9A98969492908E8C8A89878583817FC3
:100760007D7B79777573716F6D6B696866646260A4
:100770005E5C5A5957555351504E4C4A4947454370
:1007800042403E3D3B3A3836353332302F2D2C2A0D
:100790002928262523224C25640A007267626C6989
:1007A0006768745F636F6E6669672E7370656564F2
:1007B000203D2025640A007267626C696768745F77
:1007C000636F6E6669672E76616C203D2025640A32
:1007D000007267626C696768745F636F6E666967F1
:1007E0002E736174203D2025640A007267626C6973
:1007F0006768745F636F6E6669672E687565203D14
:100800002025640A007267686C696768745F636FAB
:100810006E6669672E6D6F6465203D2025640A0051
:100820007267626C696768745F636F6E6669672E72
:10083000656E61626C65203D2025640A0072676206
:100840006C696768745F636F6E6669672065707254
:100850006F6D0A007267626C696768745F696E69C0
:1008600074207267626C696768745F636F6E666933
:10087000672E6D6F6465203D20302E20577269749D
:10088000652064656661756C742076616C7565734E
:1008900020746F20454550524F4D2E0A00726762FA
:1008A0006C696768745F696E6974206565636F6EF3
:1008B000666967206973206E6F7420656E61626C73
:1008C00065642E0A007267626C696768745F696E9E
:1008D0006974207374617274210A007267626C69B2
:1008E0006768745F696E69742063616C6C65642EFF
:1008F0000A007267626C6967687420646973616278
:100900006C65205B6E6F454550524F4D5D3A2072CD
:1009100067626C696768745F636F6E6669672E658E
:100920006E61626C65203D2025750A000A00253045
:10093000313662003A200025303258000A722F63A7
:10094000203031323334353637383941424344452B
:10095000460A000A0025303258006B6579626F61E3
:1009600072645F7365745F6C65643A200000047F95
:100970003F1F643214643214783C1E1E140A055B57
:10098000735D004B6579626F61726420737461728C
:10099000742E0A000631FF0974A10109751500269D
:1009A000FF009520750881020976150026FF009545
:1009B0002075089102C005010980A1018503160177
:1009C000002603001A81002A83007510950181001A
:1009D000C0050C0901A1018504160100269C021A1C
:1009E00001002A9C02751095018100C005010906CD
:1009F000A101050719E029E71500250195087501F2
:100A000081029501750881010508190129059505DF
:100A1000750191029501750391010507190029FFE0
:100A2000150026FF00950675088100C05B435D0038
:100A30005B445D005B535D007267626C696768745C
:100A400020656E61626C65205B4E4F454550524F8C
:100A50004D5D3A207267626C696768745F636F6EA0
:100A60006669672E656E61626C65203D2025750A9A
:100A7000005B575D005B525D0009025B00030100F3
:100A8000A0FA09040000010301010009211101007D
:100A9000012240000705810308000A090401000142
:100AA0000300000009211101000122360007058220
:100AB0000320000A090402000203000000092111BA
:100AC000010001222200070583032000010705031E
:100AD000032000011201100100000008EDFE0000DB
:100AE0000100010203010403300000001203310081
:100AF000750070003600300068007300650000006B
:100B00001A033100750070006B0065007900620007
:100B10006F006100720064007300000004030904A8
:100B20003F00433E20000A002530325820006B650C
:100B300079626F6172645F7265706F72743A2000DF
:100B40000A002575002E6C6576656C3A20000A0057
:100B50002575002E656E61626C653A20000A0025DD
:100B6000303258006261636B6C696768745F636FF1
:100B70006E6669672E7261773A20000A002575005B
:100B80002E6E6B726F3A20000A002575002E737767
:100B900061705F6261636B736C6173685F626163F4
:100BA0006B73706163653A20000A002575002E732F
:100BB0007761705F67726176655F6573633A200085
:100BC0000A002575002E6E6F5F6775693A20000A6E
:100BD000002575002E737761705F72616C745F72AF
:100BE0006775693A20000A002575002E73776170D9
:100BF0005F6C616C745F6C6775693A20000A002550
:100C000075002E636170736C6F636B5F746F5F63ED
:100C10006F6E74726F6C3A20000A002575002E7397
:100C20007761705F636F6E74726F6C5F6361707316
:100C30006C6F636B3A20000A0025303258006B65F8
:100C4000796D61705F636F6E6669672E7261773A66
:100C500020000A002575002E6D6F7573653A20001F
:100C60000A002575002E6B6579626F6172643A2007
:100C7000000A002575002E6D61747269783A2000B3
:100C80000A002575002E656E61626C653A20000AC7
:100C900000253032580064656275675F636F6E6669
:100CA00069672E7261773A20000A00257500646535
:100CB0006661756C745F6C617965723A20000A092F
:100CC0002D204D61676963202D0A443A094465620D
:100CD0007567204D65737361676520546F67676C36
:100CE000650A583A094D61747269782044656275E5
:100CF00067204D6F646520546F67676C65202D20F9
:100D000053686F77206B65797072657373657320B4
:100D1000696E206D617472697820677269640A4B2C
:100D20003A094B6579626F61726420446562756748
:100D300020546F67676C65202D2053686F77206B98
:100D400065797072657373207265706F72740A4D85
:100D50003A094465627567204D6F75736520546F5D
:100D600067676C650A563A0956657273696F6E0A51
:100D7000533A095374617475730A433A09416374B1
:100D8000697661746520436F6E736F6C65204D6F7B
:100D900064650A46312D4631303A095377697463E8
:100DA0006820746F204C6179657220302D392028BD
:100DB000463130203D204C30290A302D393A095334
:100DC000776974636820746F204C61796572203094
:100DD0002D390A47524156453A0953776974636879
:100DE00020746F204C6179657220302028616C740A
:100DF00065726E617465290A423A094A756D702000
:100E0000746F20426F6F746C6F616465720A455332
:100E1000433A094A756D7020746F20426F6F746C8D
:100E20006F616465722028616C7465726E617465AF
:100E3000290A453A095072696E7420454550524F4F
:100E40004D2053657474696E67730A425350414371
:100E5000453A09436C65617220454550524F4D0A31
:100E6000000A092D20436F6E736F6C65202D0A45B3
:100E700053432F713A09717569740A004743433A25
:100E800020342E392E32204156522D4C4942433ABD
:100E900020312E382E3073766E204156525F4152EB
:100EA00043483A20617672350A004F5054494F4EFC
:100EB000533A204C5546412045585452414B4559D0
:100EC00020434F4E534F4C4520434F4D4D414E44D0
:100ED00020343039360A004255494C443A202230F9
:100EE0002E362E3430342D31342D67376162393946
:100EF000352D646972747922202831363A34383AB3
:100F00003134204A756C2020312032303139290AA1
:100F1000005649443A20307846454544283175709A
:100F20006B6579626F6172647329205049443A207D
:100F3000307830303030283175703630687365293C
:100F4000205645523A203078303030310A0044453E
:100F500053433A204120637573746F6D20363025FA
:100F6000206B6579626F6172640A000A092D205650
:100F7000657273696F6E202D0A0074696D65725F0A
:100F800072656164333228293A202530346C580A5E
:100F9000006B6579626F6172645F69646C653A20A9
:100FA00025580A006B6579626F6172645F70726FB9
:100FB000746F636F6C3A2025580A00686F73745F12
:100FC0006B6579626F6172645F6C65647328293A3E
:100FD0002025580A000A092D205374617475732066
:100FE0002D0A003F000A6D6F7573653A206F6666C3
:100FF0000A000A6D6F7573653A206F6E0A000A6BFE
:101000006579626F6172643A206F66660A000A6BE6
:101010006579626F6172643A206F6E0A000A6D61D1
:10102000747269783A206F66660A000A6D6174729C
:1010300069783A206F6E0A000A64656275673A2023
:101040006F66660A000A64656275673A206F6E0A09
:10105000000A0A4A756D70696E6720746F20626FAE
:101060006F746C6F616465722E2E2E2000433E20DB
:1010700000436C656172696E6720454550524F4D63
:101080000A006565636F6E6669673A0A000011249D
:101090001FBECFEFDAE0DEBFCDBF04B603FE27C030
:1010A00080916D0290916E02A0916F02B0917002DA
:1010B0008730904BA740B04BD1F410926D02109244
:1010C0006E0210926F021092700214BE84B7877F76
:1010D00084BF0FB6F894A8958091600088618093D2
:1010E0006000109260000FBEE0E0F8E3099511E0A7
:1010F000A0E0B1E0E6EBF0E602C005900D92A0366C
:10110000B107D9F722E0A0E6B1E001C01D92AD36EB
:10111000B207E1F70E94E21C0C9459300C940000D5
:10112000FF93EF93E0916001F0916101309709F036
:101130000995EF91FF910895FC018591803011F0A0
:10114000EFDFFBCF0895FF27E0E230E247FF0CC05E
:10115000419597FF09C0EDE2609570958095909557
:10116000611D711D811D911D27FF02C0219530E376
:1011700050E2AA27660F771F881F991FAA1FA4177E
:1011800010F0A41B63955A95A9F7AA3008F0A95F3F
:10119000A05DAF93F395611571058105910541F748
:1011A000ED3211F4EF93F395F21718F43F93F395A2
:1011B000FBCF8F91B5DFFA95E1F70895E991F991A9
:1011C0008591803021F0853219F0AADFF9CF08959A
:1011D00020E0E89455915532C1F3503311F46894EE
:1011E00055915A3348F4505390F3220F022E220F98
:1011F000220F200D250FF4CF0EF42195899199919E
:10120000533619F3533729F1533559F1BC01882767
:101210009927E8945C3621F48991999168945591C5
:10122000543639F446EF7EF077FF0DC08FEF9FEF15
:101230000AC055374AE039F0583540E121F05236BE
:1012400042E009F00895FF93EF937DDFEF91FF9166
:10125000B7CFFF93EF93FC0181918030B9F360DF4A
:10126000FBCFFF93EF9368DFF1CFDF93CF93CDB741
:10127000DEB72596A3DFCF91DF9108954F925F925D
:101280006F927F92AF92BF92CF92DF92EF92FF92D6
:101290000F931F93CF93DF9300D000D000D0CDB732
:1012A000DEB7FC01D080118183819481892B09F400
:1012B0002EC71F3F21F40FEFD01609F428C77F0176
:1012C00085E0DE01119601900D928A95E1F7F70114
:1012D000228189819A81222349F00E945A2E082F67
:1012E000682F89819A810E94D22E03C00E94A62E67
:1012F000082F2EE0129FF001112436E4039FE00D29
:10130000F11D1124ED0DF11DEE0FFF1FEA5BFE4FE5
:1013100005911491003F8CE51807C1F180F4083D58
:10132000ECE51E07C9F0093DFCE51F07D9F1073DB3
:101330002CE51207D1F526E241EE61EE10C0023F26
:101340003CE5130759F130F1033F9CE5190769F5B6
:1013500027E245EE66EE03C027E245EE65EEC701E3
:1013600026960FB6F894DEBF0FBECDBFDF91CF91AA
:101370001F910F91FF90EF90DF90CF90BF90AF90B3
:101380007F906F905F904F900C94691226E241EE2F
:1013900060EEE5CF27E245EE64EEE1CF26E241EED6
:1013A00062EEDDCF28E241E0D9CFF70182818823C8
:1013B00009F482C0109262010A3CFCE51F0709F49F
:1013C0006FC508F03FC0023C3CE5130709F4ACC40C
:1013D000E8F40531ECE51E0778F40230FCE51F0760
:1013E00008F0FCC501152CE5120709F454C40130BE
:1013F0001C4509F45DC49AC006319CE5190709F43F
:1014000060C0013C1C4509F455C690C0063CFCE593
:101410001F0709F42BC540F4043C3CE5130709F40D
:1014200002C508F4E6C419C5083C9CE5190709F48F
:1014300026C508F02EC56091D30128E0620F08F49C
:101440006FEF23C5013DFCE51F0709F48FC5C0F40C
:101450000D3C3CE5130709F46FC550F40B3C9CE5CB
:10146000190709F43EC50C3C1C4509F440C55EC093
:101470000F3CFCE51F0709F469C508F45FC56EC59C
:10148000053D3CE5130709F48BC540F4033D9CE59D
:10149000190709F47BC508F471C57AC50D3DFCE553
:1014A0001F0709F497C50E3D2CE5120709F426C461
:1014B0000C3D1C45D9F58BC50631FCE51F0709F02D
:1014C000CBC390916202882381F09A7A81E009F47B
:1014D00080E080936301811102C069E201C065E38D
:1014E0008EEE91E00E94B22A0BC0809163018111BF
:1014F00002C069E201C065E38EEE91E00E94A62A77
:1015000026960FB6F894DEBF0FBECDBFDF91CF9108
:101510001F910F91FF90EF90DF90CF90BF90AF9011
:101520007F906F905F904F900C94F22DF7010081A7
:101530001181C8010E945A2ED82E682FC8010E941E
:10154000D22EB8018D2D0E949A17182F782EF701F0
:10155000058102950F70A280A11010926102809106
:101560005F02877089F0AA2079F080E2810F8830CD
:1015700058F082E09E830E94302F80915F02877036
:10158000BB24B3949E818111B12CC92EC2948FE0EB
:10159000C822D12CFEE0CF16D10408F023C3F601F7
:1015A000EA5AFF4F0C942C30892F807F9F70092FAF
:1015B000882311F00295007FAA20B9F0002309F4D6
:1015C0000BC280E2810F883010F0711006C090913C
:1015D0006202092B0093620205C090916102092BFF
:1015E000009361020E94F22DF7C1812F0E945428BE
:1015F000002309F4F7C2105E0095183010F0711046
:1016000006C09091620209230093620205C0909186
:1016100061020923009361020E94F22DE3C2292F87
:10162000207F892F8F70203211F08295807F772064
:1016300021F021E07216E9F026C0AA2081F0209165
:101640006302002351F0013041F4982F922B2917A7
:1016500009F4C8C290936302C5C2822B46C100231D
:1016600019F0013009F4BEC28E830E94EC2D8E81E8
:1016700042C1AA2021F0063008F0B4C236C10530BC
:1016800008F0B0C238C1AA2051F0002309F42DC1DE
:10169000F701958190FFA0C19F70958326C100231B
:1016A00009F429C1ABC1292F26952695237030E076
:1016B0002115310521F02130310559F093C2AA20BE
:1016C00019F0812F937002C080E090E00E944712D1
:1016D00097C2AA2019F0812F937002C080E090E099
:1016E0000E9431128DC2892F837009F071C0A11040
:1016F00085C2812F829586958770880F880F412F2C
:101700004F7050E060E070E02A013B01082E04C0F9
:10171000440C551C661C771C0A94D2F714FF12C0A7
:101720000FE010E020E030E004C0000F111F221F86
:10173000331F8A95D2F7B901A8014095509560955D
:10174000709503C040E050E0BA019695969593706D
:10175000892F90E082309105E9F08330910579F18D
:101760000091640210916502209166023091670237
:10177000019759F04429552966297729CB01BA01E7
:10178000602371238223932320C0402A512A622A96
:10179000732A15C044295529662977298091640246
:1017A00090916502A0916602B09167028A019B0147
:1017B000082719272A273B27C901B80106C0CB01F2
:1017C000BA0164297529862997290E946A2F16C2B1
:1017D000AA2019F0892F817001C08695882309F409
:1017E0000DC2812F829586958770880F880F412FB3
:1017F0004F7050E060E070E02A013B01082E04C009
:10180000440C551C661C771C0A94D2F714FF12C0B6
:101810000FE010E020E030E004C0000F111F221F95
:10182000331F8A95D2F7B901A8014095509560956C
:10183000709503C040E050E0BA019695969593707C
:10184000892F90E082309105E9F08330910579F19C
:1018500000915B0210915C0220915D0230915E026A
:10186000019759F04429552966297729CB01BA01F6
:10187000602371238223932320C0402A512A622AA5
:10188000732A15C0442955296629772980915B025E
:1018900090915C02A0915D02B0915E028A019B0171
:1018A000082719272A273B27C901B80106C0CB0101
:1018B000BA0164297529862997290E94012F9EC1A2
:1018C000412F50E0FA01E05EF109E531F10508F041
:1018D0007EC0EC59FF4F0C942C301F70892F8F71F4
:1018E000AA2031F00E94492F812F0E944A287AC1F4
:1018F0000E940B2F812F0E943F2874C1AA2019F14A
:10190000053008F06FC1292F2F7181E090E0A0E031
:10191000B0E0AC01BD0104C0440F551F661F771F26
:101920002A95D2F780915B0290915C02A0915D02B2
:10193000B0915E028A019B01082719272A273B27BD
:10194000C901B80125C0063008F04CC1DCCFAA207F
:1019500029F0892F8F712EC0AA20D9F3892F8F717A
:101960000E940B2F3FC1AA2081F0292F2F7181E007
:1019700090E0A0E0B0E0BC01CD0104C0660F771F8D
:10198000881F991F2A95D2F703C060E070E0CB0151
:101990000E94012F27C1AA2081F0192F1F71812FCA
:1019A0000E94492F28E0129FC00111248360809378
:1019B0005F02812F0E94492F15C181E00E94302FC4
:1019C000023008F40FC182E00E94302F0BC1AA2020
:1019D00039F0002309F4BDCF812F0E94B02802C145
:1019E000002309F4BBCF193349F43FEF83EC99E0AE
:1019F000315080409040E1F700C00000812F0E94EC
:101A00005428F0C0A110FCC09F70292F30E0223074
:101A1000310509F45FC03CF42115310581F0213016
:101A2000310599F1DFC02430310509F4D7C00CF439
:101A30009CC02530310509F0D5C080E0D0C0209190
:101A40009A01822F8695482F50E04530510544F485
:101A50008F5F982F990F822F8170892B80939A0125
:101A600060919A01616060939A0186E090E00E9423
:101A7000922F8091BB0180FFABC080919A01869527
:101A80001F928F9383EB93E09BC080919A01982FD4
:101A90009695A1F09158990F8170892B80939A01A6
:101AA0008E7F91E009F490E060919A0190FB60F9DB
:101AB00060939A0186E090E00E94922F8091BB0192
:101AC00080FF86C080919A0186951F928F938BEC40
:101AD00093E076C010919A0111708091BB0180FF54
:101AE0000CC01F921F9388E094E09F938F930E94F5
:101AF00035090F900F900F900F9060919A0111236C
:101B0000B9F060FF7DC06E7F60939A0186E090E03F
:101B10000E94922F8091BB0180FF08C083EE93E06A
:101B20009F938F930E9435090F900F9080E053C0D0
:101B300060FD66C0616060939A01613019F483E0D2
:101B400080939A0160919A0186E090E00E94922F22
:101B50008091BB0180FF3CC086EF93E09F938F9301
:101B60000E9435090F900F9033C090919A01892FF0
:101B700086958F5F8F779170863028F4880F892B38
:101B800080939A0102C090939A0180919A018E7F6E
:101B900091E009F490E060919A0190FB60F9609304
:101BA0009A0186E090E00E94922F8091BB0180FF15
:101BB0000FC080919A0186951F928F938EE194E0D9
:101BC0009F938F930E9435090F900F900F900F9065
:101BD00080919A0186950E94891A12C085E00E9420
:101BE000A61C0EC0E8E0CE16D10441F04CF00AE08D
:101BF000C01AD10812E0C116D10410F40E945D127F
:101C0000BB2009F484C280915F0280FD80C2F7018D
:101C100012828595859585950E94492FC7010E945E
:101C20003E0980915F0285958595859526960FB62C
:101C3000F894DEBF0FBECDBFDF91CF911F910F9102
:101C4000FF90EF90DF90CF90BF90AF907F906F901C
:101C50005F904F900C940B2F07312CE5120750F436
:101C600001153CE5130708F41DC202301C4508F4B9
:101C70004EC218C2013CECE51E0708F413C2063D33
:101C8000FCE51F0708F443C20C5D1C450330110539
:101C900008F43DC207C20E9434280FEF14E32CE081
:101CA000015010402040E1F700C000000E94FD29D3
:101CB0008091BB01982F9095917090FB80F9809353
:101CC000BB01992319F082EA93E002C080E993E016
:101CD00026960FB6F894DEBF0FBECDBFDF91CF9131
:101CE0001F910F91FF90EF90DF90CF90BF90AF903A
:101CF0007F906F905F904F900C949C0826960FB643
:101D0000F894DEBF0FBECDBFDF91CF911F910F9131
:101D1000FF90EF90DF90CF90BF90AF907F906F904B
:101D20005F904F900C94D72A8091D101817011E07F
:101D300081271F928F9389E593E09F938F930E9451
:101D400035098091D1010F900F900F900F9080FF77
:101D50003DC08E7F8093D1016091D1017091D201FD
:101D60008091D3019091D4010E9460158091D1019E
:101D700081701F928F938AEE92E09F938F930E94BF
:101D800035090E94E4128FEF90E7E2E08150904025
:101D9000E040E1F700C000000F900F900F900F900F
:101DA00026960FB6F894DEBF0FBECDBFDF91CF9160
:101DB0001F910F91FF90EF90DF90CF90BF90AF9069
:101DC0007F906F905F904F900C941513816080937B
:101DD000D1011F921F9382E293E09F938F930E9401
:101DE00035090F900F900F900F908091D10186953B
:101DF000D8C0809162028272D1F026960FB6F89414
:101E0000DEBF0FBECDBFDF91CF911F910F91FF902D
:101E1000EF90DF90CF90BF90AF907F906F905F90EA
:101E20004F900C94AE1680916202827231F3269626
:101E30000FB6F894DEBF0FBECDBFDF91CF911F91DB
:101E40000F91FF90EF90DF90CF90BF90AF907F9079
:101E50006F905F904F900C94B7168091D20121E063
:101E60004091D4016091D301885F25C08091D20157
:101E700021E04091D4016091D30188501CC0609151
:101E8000D30128E0621B08F460E021E04091D40116
:101E900010C04091D40128E0420F08F44FEF06C073
:101EA0004091D40128E0421B08F440E021E0609119
:101EB000D3018091D20126960FB6F894DEBF0FBEF3
:101EC000CDBFDF91CF911F910F91FF90EF90DF90E9
:101ED000CF90BF90AF907F906F905F904F900C9499
:101EE0007C158091D501833048F48F5F05C08091C7
:101EF000D501882319F081508093D5016091D101DB
:101F00007091D2018091D3019091D40126960FB6A1
:101F1000F894DEBF0FBECDBFDF91CF911F910F911F
:101F2000FF90EF90DF90CF90BF90AF907F906F9039
:101F30005F904F900C94601581E033C00E9445156E
:101F40008250833008F473CF82E02BC00E94451585
:101F50008650823008F46BCF86E023C00E9445157E
:101F60008950853008F463CF89E01BC00E94451575
:101F70008F50853008F45BCF8FE013C00E94451569
:101F80008551823008F453CF85E10BC088E109C048
:101F90000E9445158951893008F449CF89E101C073
:101FA00083E226960FB6F894DEBF0FBECDBFDF9159
:101FB000CF911F910F91FF90EF90DF90CF90BF9046
:101FC000AF907F906F905F904F900C94AB161092F3
:101FD0009B019DC082E080939B0199C00E94CC2A06
:101FE000811102C00E94D72A84E090E00E947E2FD7
:101FF00090E09093AB018093AA01F801E350FC4577
:10200000E231F10530F4E758FF4F8091AA010C94BA
:102010002C308091AA01816027C0826025C0846035
:1020200023C0806121C080621FC080641DC08068A1
:102030001BC08460886018C08E7F16C08D7F14C05E
:102040008B7F12C08F7E10C08F7D0EC08F7B0CC027
:102050008F770AC08B7F877F07C087FB222720F9F5
:1020600091E0922790FB87F98093AA016091AA01E1
:1020700084E090E00E94922F26960FB6F894DEBF7F
:102080000FBECDBFDF91CF911F910F91FF90EF90C9
:10209000DF90CF90BF90AF907F906F905F904F9008
:1020A0000C943428F70100811181C8010E94A62EEA
:1020B000D82E47CA80916F0080FF1EC080916F00AC
:1020C0008E7F80936F0080919A01869526960FB639
:1020D000F894DEBF0FBECDBFDF91CF911F910F915E
:1020E000FF90EF90DF90CF90BF90AF907F906F9078
:1020F0005F904F900C94891A10929F0110929E014C
:1021000010929D0180916F00816080936F002696F0
:102110000FB6F894DEBF0FBECDBFDF91CF911F91F8
:102120000F91FF90EF90DF90CF90BF90AF907F9096
:102130006F905F904F9008950895AF92BF92CF92A5
:10214000DF92EF92FF920F931F93CF93DF93D82EDE
:10215000C62EE901E42FF0E0611106C0EE54FB4FFA
:102160004491E42F842F7BC0E62EF12C26E0829F41
:10217000C00111240FEF10E0B8010E94E22F5BEACA
:1021800056039001579F300D11242D0D311D2D0D3B
:10219000311D822F880F280FC8018E199F098E9F2D
:1021A000D0018F9FB00D9E9FB00D11249B2F2C9DB1
:1021B00060011124CD2CDD245801AC18BD08AE9E61
:1021C0006001AF9ED00CBE9ED00C11245801A21A03
:1021D000B108AE9C9001AF9C300DBE9C300D112417
:1021E000232F3327021B130B0E9F90010F9F300DDF
:1021F0001E9F300D1124832F6230710591F04CF435
:1022000061157105E9F061307105C1F4842F4D2D20
:1022100017C06430710571F044F06630710581F0CB
:102220000DC0842F4B2F932F0BC0E42F4B2F9E2FCD
:102230008D2D06C08B2F942F432F02C08B2F9D2DE9
:10224000E42FF0E0EE54FB4F4491E82FF0E0EE5421
:10225000FB4F8491E92FF0E0EE54FB4FE49149836A
:102260008883EA83DF91CF911F910F91FF90EF90C8
:10227000DF90CF90BF90AF9008959091AA0192FF08
:102280000DC0282F2871283019F4877F846006C07C
:10229000282F2471243011F48B7F886093FF0DC0A8
:1022A000282F2871283119F4877E846106C0282FD1
:1022B0002471243111F48B7E886194FD877E08950A
:1022C000CF92DF92EF92FF928C3724E1920728F4AD
:1022D00069E070E00E94E22F29C0A0E0B0E08A50DF
:1022E000974DAF4FBF4F6627782F892F9A2F25EF35
:1022F00038E241E050E00E940A3069017A01CA01E7
:10230000B9010E94C62F9B01AC01C701B6010E9412
:10231000C62FBB27A92F982F872F009721E0A20750
:10232000B10511F0BC0102C06FEF7FEFCB01FF9050
:10233000EF90DF90CF9008951F93CF93DF93CDB7A9
:10234000DEB767970FB6F894DEBF0FBECDBF4B8BDD
:102350005C8B6D8B7E8B8F8B86E09E01235F3F4F66
:10236000D901E82F1D92EA95E9F795E0FE017396F1
:10237000D90101900D929A95E1F7F901DE011796C6
:1023800001900D928A95E1F7CE0107960E9468268A
:10239000811136C086E0FE013796DE01119601906C
:1023A0000D928A95E1F77F816885EA85FB853097F4
:1023B00039F16F3F11F47F3F19F12091FC0130E0BA
:1023C000C90101968770992740912D0250E084172A
:1023D000950779F179836A83FD83EC8396E0929F78
:1023E000D001939FB00D1124A350BE4FFE01319632
:1023F00001900D929A95E1F78093FC010E94742F51
:1024000016E080912D029091FC01891701F1189F2F
:10241000C001112483509E4F0E9468268823B9F082
:1024200080912D0290E001968770992780932D026C
:10243000E8CF0E9434281092FC0110922D02E6EFA2
:10244000F1E086E0DF011D928A95E9F7D9CF679622
:102450000FB6F894DEBF0FBECDBFDF91CF911F91B5
:10246000089520919801309199018217930771F096
:102470009093990180939801E091AD01F091AE01A4
:10248000309721F00084F185E02D09940895209182
:102490009601309197018217930771F090939701FD
:1024A00080939601E091AD01F091AE01309721F05B
:1024B0000680F781E02D09940895E091AD01F09137
:1024C000AE01309721F00190F081E02D099480E079
:1024D00008950F931F93CF93DF93C62FD42F022F0E
:1024E000FC0182818823C9F0609362010E94712AF5
:1024F000909395018093940180E28C0F883008F0CE
:102500005EC0C77081E001C0880FCA95EAF7DF910D
:10251000CF911F910F910C944A28109162011613CC
:102520003EC080919401909195010E94472A883C79
:102530009105A8F5C0E2CD0F1D17B9F080E2810F1B
:10254000883040F4177081E001C0880F1A95EAF7CF
:102550000E943F28C83048F481E09D2F977001C049
:10256000880F9A95EAF70E944A28802F0E94B02887
:10257000093349F4FFEF23EC89E0F150204080401B
:10258000E1F700C00000802F0E945428C830B8F442
:10259000D77081E001C0880FDA95EAF70AC080E2BF
:1025A0008C0F883060F4C77081E001C0880FCA9535
:1025B000EAF7DF91CF911F910F910C943F28DF91A3
:1025C000CF911F910F9108951092CD018091BB0181
:1025D00080FF08C08DE796E09F938F930E94350996
:1025E0000F900F9008956091D101669570E04BE0D7
:1025F00050E080E091E00E944C30892B19F481E09A
:102600008093CD010E94712A9093C7018093C601E7
:102610008091BB0180FF08C084E696E09F938F9372
:102620000E9435090F900F9008958091D10180FF8D
:102630000AC0809A81B38E7F91B391602FB7F894CE
:10264000EAE6F1E00DC080E090E0FC01E659FE4FC3
:1026500011821082128203968A329105B1F7E9CF76
:1026600031E0E439F30789F0319148E091BB000093
:1026700000C037FF81BB330F000000C000C000C0A6
:1026800081BB00C04A9591F7EBCF2FBF87EC90E05C
:102690000197F1F700C000000895EF92FF920F93A9
:1026A0001F93CF93DF937C01CAE6D1E000E010E0F6
:1026B000F7018481073011051CF4882339F002C02A
:1026C000811104C09E014091D40102C09E0140E0EE
:1026D0006091D3018091D2010E949D100F5F1F4F26
:1026E00023960E30110521F70E941513F70124815E
:1026F00030E02F5F3F4F217033272483DF91CF914C
:102700001F910F91FF90EF900895EF92FF920F931A
:102710001F93CF93DF93EC012C813D812F5F3F4FBF
:10272000217033273D832C838AE6E82E81E0F82E42
:1027300010E005E5812F86954C815D81480F511D84
:10274000842F817097014091D4016091D301809FC3
:10275000802D11240E949D101F5F83E0E80EF11C64
:102760001E3041F7DF91CF911F910F91FF90EF90B5
:102770000C9415130F931F93CF93DF9380E090E099
:10278000FC01E659FE4F11821082128203968A32B2
:102790009105B1F7C0E0D0E00EE010E0CE01B80145
:1027A0000E94F62F40916801042E000C550BFC018D
:1027B000EE0FFF1FC417D507B4F040910C01042E93
:1027C000000C550B4C175D0774F08E0F9F1F9C017A
:1027D00026593E4F4091D4016091D3018091D2019E
:1027E0000E949D1007C0E80FF91FE659FE4F1182A5
:1027F000108212822196CE30D10581F60E941513E7
:1028000080910B0190916801980F9093680120913D
:102810000C01280F20930C01121614F49D301CF0AB
:10282000819580930B01DF91CF911F910F910895B6
:10283000AF92BF92CF92DF92EF92FF920F931F93CE
:10284000CF93DF93FC01828180FF03C0BB24BA9445
:1028500002C0BB24B3942AE6E22E21E0F22E0CE65D
:1028600011E0C0E0D0E0F80131971082F70110824A
:10287000F801108294E0C92ED12CA12C809167011F
:102880008A0D87FD825F082E000C990BC817D907A7
:1028900091F48091D4018C9DA0018D9D500D112447
:1028A000559547955595479597016091D30180912E
:1028B000D2010E949D10AB0CF1E0CF1AD108F1F6C5
:1028C000219683E0E80EF11C0D5F1F4FCE30D1053D
:1028D00051F60E9415138091670191E0B91206C06C
:1028E000811102C08DE007C0815005C090E00196C3
:1028F000BE010E94F62F80936701DF91CF911F9157
:102900000F91FF90EF90DF90CF90BF90AF90089520
:10291000EF92FF921F93CF93DF93EC018AE6E82EAC
:1029200081E0F82E10E08C8197014091D4016091F4
:10293000D301810F0E949D101E5E83E0E80EF11C02
:102940001C3F89F70E9415138A819C8180FF02C079
:102950009F5F01C091509C83DF91CF911F91FF90A9
:10296000EF9008959091D10190FF0FC020E030E0EA
:10297000F901E659FE4F8183608342832D5F3F4F0B
:102980002A323105A9F70C94151308950F931F935C
:10299000CF93DF9300D01F92CDB7DEB78C0180912B
:1029A000690181110AC09E012F5F3F4F4FEF6FEF0A
:1029B0000E949D108A8180936901F8018481813091
:1029C00051F028F0823061F4409169010AC0809191
:1029D000690140E007C06091690140E080E003C008
:1029E00040E080E060E00E94B214F801248130E011
:1029F000C901019663E070E00E94F62F84830F9076
:102A00000F900F90DF91CF911F910F910895CF9369
:102A1000DF9300D01F92CDB7DEB79091D10190FF28
:102A20000AC09E012F5F3F4F0E949D104B8169811C
:102A30008A810E94B2140F900F900F90DF91CF9176
:102A40000895CF93DF93EC01E1EDF1E043816281E2
:102A50008C810E9407158C818F5F8C83DF91CF91D1
:102A60000895CF93DF93EC01EC81F0E0EA56F94F43
:102A70004491E1EDF1E0628181810E9407158C8132
:102A80008F5F8C83DF91CF9108958091D10180FF7A
:102A900002C08695089580E008958091D101282F85
:102AA000269530E02115310519F48170826005C04A
:102AB0002532310524F0817088648093D101089516
:102AC000CF93DF9300D000D0CDB7DEB7AB01BC0110
:102AD00049835A836B837C830E944D1549815A81B7
:102AE0006B817C8188E090E00F900F900F900F90A9
:102AF000DF91CF910C94A42F3F924F925F926F92EF
:102B00007F928F929F92AF92BF92CF92DF92EF927D
:102B1000FF920F931F93CF93DF9300D000D0CDB7D8
:102B2000DEB7182F562E042F322E9091D10190FF30
:102B3000AAC0E92FE695AE2FB0E0A85EBE4F8C91FB
:102B40008093CC019E7F923061F49E012F5F3F4FB6
:102B5000812F0E949D104B8169818A810E94B2144D
:102B600060C0823019F40091D4015BC0863019F442
:102B70001091D20156C08930D9F3893109F051C082
:102B8000E9518E2F80958170482EE695F0E0E15A4C
:102B9000F94FC590D4908AE6A82E81E0B82EE12C9A
:102BA000F12CDD249EE0692E712C28E3822E26E094
:102BB000922EEC9CC001ED9C900DFC9C900D11247C
:102BC000B3010E94E22F812F442011F0860F01C033
:102BD000861B9091BB0190FF13C0DF92CF921F9292
:102BE0004F921F928F93FF92EF929F928F928C83BE
:102BF0000E9435090FB6F894DEBF0FBECDBF8C81A1
:102C00009501402F652D0E949D103FEFE31AF30AB6
:102C100083E0A80EB11C9EE0E916F10451F60E9473
:102C200015131093D2015092D3010093D401332095
:102C3000C9F06091D1017091D2018091D30190913E
:102C4000D4010E9460158091D4011F928F938091CE
:102C5000D3011F928F938091D2011F928F9383E1B2
:102C600096E008C01F920F931F925F921F921F93CE
:102C70008CEE95E09F938F930E9435090FB6F894E0
:102C8000DEBF0FBECDBF0F900F900F900F90DF9162
:102C9000CF911F910F91FF90EF90DF90CF90BF9059
:102CA000AF909F908F907F906F905F904F903F90EC
:102CB00008959091D10190FF4DC09170811102C093
:102CC000926006C0853210F0986402C0880F982B7D
:102CD0009093D101662391F06091D1017091D2015E
:102CE0008091D3019091D4010E9460158091D1010F
:102CF00086951F928F9380ED95E007C08091D1015A
:102D000086951F928F9382EB95E09F938F930E94FD
:102D100035090F900F900F900F906091D10166953B
:102D200070E04BE050E080E091E00E944C30892B55
:102D300019F00E94E41202C00E94F31281E0809315
:102D4000C90120E04091D4016091D3018091D2016A
:102D50000C947C15089561E00C9459168091D10172
:102D60008695815009F484E261E00C9459168091B3
:102D7000D10186958F5F853208F081E061E00C9487
:102D80005916E1EDF1E083E0808311828FEF8283B9
:102D90008383148260817181828193810C94601598
:102DA0006F927F928F929F92AF92BF92CF92DF925B
:102DB000EF92FF920F931F93CF93DF930DE311E0F8
:102DC000A0EAB1E0B12CEE24E394F12C4D016D901A
:102DD0007C90119711961C921E92E80189918E01A8
:102DE000E82FE295EF70F0E091A18F70970101C09C
:102DF000220F8A95EAF7892F822B81A382A1A22E26
:102E0000A0948A2182A3D0EADA95F1F782E4C82E51
:102E100081E0D82E60E070E0E60189916E01C82F54
:102E2000C295CF70D0E048A1CD91DC91119750E0D0
:102E30008F7002C0559547958A95E2F740FD08C00E
:102E4000C701062E02C0880F991F0A94E2F702C03C
:102E500080E090E0C82BD92B1196DC93CE936F5F66
:102E60007F4F6E307105C1F681A1A822A1A282A177
:102E7000282B22A3129681E0F40120813181621671
:102E8000730609F480E0B82AF1E0AA3ABF0709F016
:102E90009DCFBB2049F081E0809366010E94712A9A
:102EA000909365018093640180916601882391F17C
:102EB00080916401909165010E94472A069750F124
:102EC0008091A0019091A1019093B1018093B001F4
:102ED0008091A2019091A3019093B3018093B201DC
:102EE0008091A4019091A5019093B5018093B401C4
:102EF0008091A6019091A7019093B7018093B601AC
:102F00008091A8019091A9019093B9018093B80193
:102F1000109266018B2DDF91CF911F910F91FF9041
:102F2000EF90DF90CF90BF90AF909F908F907F9069
:102F30006F900895CF93DF932EE0729FF0011124DC
:102F400036E4839FE00DF11D1124E60FF11DEE0F15
:102F5000FF1FEA5BFE4FC591D491CE01C238D10567
:102F600049F1B0F4C133D10509F464C048F4C93261
:102F7000D10509F458C0CA32D10509F462C068C04D
:102F8000C533D10509F448C0C933D10599F060C0F3
:102F9000C33ED10541F138F4C03ED10591F0C23EA7
:102FA000D105B1F055C0C63ED10521F1C73ED105CE
:102FB00061F14EC02091AA0120FD43C221FD41C212
:102FC00042C22091AA0120FF3EC289E390E03BC2A9
:102FD0002091AA0122FF37C28091AA0184FDE3C19A
:102FE00083EE90E030C28091AA0182FFF5CF82EE9D
:102FF00090E029C22091AA0123FF25C28091AA0155
:1030000084FDD1C187EE90E01EC28091AA0183FFAA
:10301000F5CF86EE90E017C22091AA0125FF13C2DA
:1030200089E290E010C22091AA0125FF0CC285E33D
:1030300090E009C22091AA0126FF05C28AE290E031
:1030400002C22091AA0126FFFEC181E390E0FBC1EC
:10305000C11561E5D60708F047C0C11570E5D7076F
:1030600008F03DC1C83ED10520F5C03ED10508F0AD
:10307000EAC1C83AD10570F4C53AD10508F0AEC02E
:10308000C130D10509F4DFC108F48DC1249708F4DB
:103090008AC1D9C1CF3BD10508F4ABC0C03CD10532
:1030A00008F481C1CE01880F991FFC01EE5CFC4F32
:1030B00006C1C11520E3D20788F4C11530E2D30759
:1030C00008F0F6C0C03FD10508F46DC1CF3FD1056F
:1030D00011F008F0B8C1CE019065B5C1C11560E42A
:1030E000D60708F4EFC0F7C0C11579E5D70758F542
:1030F000C11588E5D80708F042C1C11594E5D90784
:1031000078F4C11523E5D20708F01DC1C11532E5D9
:10311000D30708F001C19C2F8827816F906A93C163
:10312000C11565E5D60708F425C1C11576E5D707B1
:1031300008F039C18C2F0E943D118F7190E0982FBB
:103140008827906280C1CD3B8CE5D80709F422C165
:1031500008F5CB3B2CE5D20709F416C108F017C1DE
:10316000C1156AE5D60708F01EC18C2F8F700E942A
:103170003D11FE0194E0F695E7959A95E1F7EF7021
:10318000F0E0FE2FEE27F06A8F70806E9F01282BF3
:10319000C90159C1C03C7CE5D70709F401C160F4FD
:1031A000CE3B9CE5D90709F4F8C0CF3BDC4509F0DC
:1031B000FAC080E092ED47C1CE0190568115904251
:1031C00008F0F1C08D2F8F710E943D11FE01FF2785
:1031D000F0628F71BF01782BCB0135C1C53AD105A3
:1031E00009F4E4C0C63AD10509F0E3C082E890E4EE
:1031F0002AC1C83AD10509F4DFC0C93AD10509F49A
:10320000DEC0CA3AD10509F4DDC0CB3AD10509F4D4
:10321000DCC0CC3AD10509F4DBC0CB3BD10509F4C5
:10322000DAC0CC3BD10509F4D9C0CD3AD10509F4B7
:10323000D8C0C03BD10509F4D7C0CE3AD10509F4B6
:10324000D6C0CF3AD10509F4D5C0C13BD10509F4A8
:10325000D4C0C23BD10509F4D3C0C33BD10509F4A6
:10326000D2C0C43BD10509F4D1C0C53BD10509F496
:10327000D0C0C63BD10509F4CFC0C73BD10509F486
:10328000CEC0C83BD10509F4CDC0C93BD10509F476
:10329000CCC0CD3BD10509F4CBC0CE3BD10509F460
:1032A000CAC0CA3BD10509F4C9C080E094E4CBC0D0
:1032B000CE019F70FC01EE0FFF1FEE54FB4F859176
:1032C0009491C1C09E013327C901D3FF02C0986CFD
:1032D000BAC0906CB8C0CE019F70906AB4C02C2F59
:1032E000237081E090E002C0880F991F2A95E2F7D1
:1032F0009C689E0174E0369527957A95E1F72370D6
:10330000922BEC2FEF70E695E69560E2E69FF001D8
:1033100011248E2B9F2B97C08C2F8695869570E25B
:10332000879FA0011124CE018370992721E030E00E
:10333000B90102C0660F771F8A95E2F7CB01842B93
:10334000952B9C6880C08C2F8695869570E2879F10
:10335000A0011124CE018370992721E030E0B9014A
:1033600002C0660F771F8A95E2F7CB01842B952B5D
:103370009A6869C09C2F8827846F906A64C09C2FCC
:103380008827806F906A5FC080E094ED5CC080E029
:1033900095ED59C080E091ED56C080E090ED53C0AE
:1033A00080E093ED50C080E090E04DC081E890E473
:1033B0004AC083E890E447C082EE94E444C089EEBA
:1033C00094E441C08AEE94E43EC085EB94E43BC0B3
:1033D00086EB94E438C083EB94E435C084EB94E44A
:1033E00032C087EB94E42FC08CEC94E42CC08DECBD
:1033F00094E429C083E895E426C08AE895E423C0D4
:1034000082E995E420C084E995E41DC081E296E458
:103410001AC083E296E417C084E296E414C085E201
:1034200096E411C086E296E40EC087E296E40BC0F3
:103430008FE694E408C080E794E405C08AE296E44D
:1034400002C080EE90E0DF91CF9108951F920F921D
:103450000FB60F9211242F933F934F935F936F9367
:103460007F938F939F93AF93BF93EF93FF9380913D
:103470009E0190919F01019668EB75E00E94E22FFA
:1034800090939F0180939E016BE070E00E94E22F79
:103490006F7780919D01823019F4603451F404C03B
:1034A000813039F46F3729F480916F008E7F8093DB
:1034B0006F00E62FF0E0EE5CFB4FE49121E031E09D
:1034C000E29FC001E39F900D112465E070E00E942F
:1034D000E22F80919A018695282F269FC001279F71
:1034E000900D11240E94601190938D0080938C00A8
:1034F000FF91EF91BF91AF919F918F917F916F91CC
:103500005F914F913F912F910F900FBE0F901F90A1
:103510001895863030F4811105C090918000977F16
:1035200004C085E090918000986090938000282FDF
:1035300030E0AFEFBFEF0E94323025E030E040E0F6
:1035400050E00E940A30C9010E94601190938D00E2
:1035500080938C00089508958091D90108959FB7B4
:10356000F8941092CE019FBF9091E401943009F03D
:1035700057C09091E9009F703091EC00232F21708B
:1035800030FD20E8922B23E02093E9002091EB000E
:1035900020FF43C02091EE0027FF3FC020919C01F7
:1035A000222321F02091E80025FF37C010929C01D2
:1035B00026E03091E80035FD15C03091E40134304B
:1035C00061F53091EB0035FD28C0215021F481E0F8
:1035D00080939C0122C0EFE9FFE03197F1F700C032
:1035E0000000E7CF8093F1008091E80085FD0AC0DC
:1035F0008091E80080FFFCCF8091E8008E77809377
:10360000E80006C08FB7F89421E02093CE018FBF69
:103610009F709093E90080E008959F709093E90077
:103620008FEF0895CF93DF9300D01F92CDB7DEB711
:103630009C0190919B01911105C08091E40184301F
:1036400049F504C0923011F0943021F584E089836B
:103650003B832A8382E08093E9008FEF9091E8001A
:10366000815095FD06C095ED9A95F1F70000811106
:10367000F5CF8091E80085FF0DC040E050E063E0A9
:1036800070E0CE0101960E94C7208091E8008E77FD
:103690008093E8000F900F900F90DF91CF910895E5
:1036A000CF93DF9300D01F92CDB7DEB72091E40116
:1036B000243031F523E02983805891099B838A8344
:1036C00082E08093E9008FEF9091E800815095FDB2
:1036D00006C095ED9A95F1F700008111F5CF809124
:1036E000E80085FF0DC040E050E063E070E0CE01EF
:1036F00001960E94C7208091E8008E778093E800B1
:103700000F900F900F90DF91CF910895CF93DF939B
:1037100020919B01211103C02091E40102C02230BD
:1037200011F0243039F521E02093E9002FEF30919A
:10373000E800215035FD06C035ED3A95F1F700005F
:103740002111F5CF2091E80025FF14C0EC0140E0E5
:1037500050E068E070E00E94C7208091E8008E771A
:103760008093E80088E0FE01AAEDB1E001900D929F
:103770008A95E1F7DF91CF9108952091E40030918F
:10378000E50095E64091EC00842F817040FF22C057
:103790008091E80080FD1CC08091E401882391F0B5
:1037A000853091F08091EB0085FD10C04091E400E0
:1037B0005091E5004217530729F39A01915011F7F0
:1037C00084E0089582E0089583E0089581E00895FB
:1037D00080E008954091E80042FFDECF0895809197
:1037E000E60187FF11C08091E80082FD05C080914D
:1037F000E4018111F8CF11C08091E8008B770BC0F4
:103800008091E401882349F08091E80080FFF8CF9F
:103810008091E8008E778093E8000895982F973084
:1038200058F59093E900981739F07091EC002091C9
:10383000ED005091F00003C0242F762F50E021FFBF
:1038400019C03091EB003E7F3093EB003091ED00DA
:103850003D7F3093ED003091EB0031603093EB0011
:103860007093EC002093ED005093F0002091EE0057
:1038700027FF07C09F5FD3CF8F708093E90081E05F
:10388000089580E008952091EC013091ED01261714
:10389000370748F06115710539F42091E8002E775B
:1038A0002093E80001C0B90140E061157105A9F15C
:1038B0002091E401222309F443C0253009F442C0D9
:1038C0002091E80023FD40C02091E80022FD32C095
:1038D0002091E80020FFE9CF4091F3002091F20011
:1038E00030E0342BFC01CF016115710559F028300F
:1038F000310540F481918093F100615071092F5F8F
:103900003F4FF1CF41E02830310509F040E02091F0
:10391000E8002E772093E800C8CF4111C9CF0AC034
:103920008091E401882361F0853061F08091E800A6
:1039300083FD0AC08091E80082FFF2CF80E0089505
:1039400082E0089583E0089581E00895863008F0CC
:1039500085E0880F90919A019170892B80939A014C
:103960008E7F91E009F490E060919A0190FB60F9FC
:1039700060939A0186E090E00E94922F80919A01D4
:1039800086950C94891A0E94CC2A811102C00E944B
:10399000D72A86E090E00E947E2F80939A01282FFC
:1039A000269530E02630310524F081708A608093BE
:1039B0009A0180919A0180FF02C0869501C080E043
:1039C0000C94891ACF93DF93CDB7DEB72D970FB63E
:1039D000F894DEBF0FBECDBF84B7877F84BF0FB61C
:1039E000F894A8958091600088618093600010929F
:1039F00060000FBE80E8809361001092610085B77F
:103A0000806885BF85B7806885BF0E9417240E94A3
:103A100036248091E20084608093E2008FEA9AE18C
:103A2000909361018093600178948091E4018823F0
:103A3000A1F01091E9001F709091EC00892F817026
:103A400090FD80E8182B1092E9008091E80083FD3A
:103A50000E94FE201F701093E90082E084BD93E075
:103A600095BD9AEF97BD80936E00EDE3F1E041E0E4
:103A700050E025E02E0F9191A92FA295AF70B0E0F4
:103A800091963C9191979F70BA0102C0660F771F83
:103A90009A95E2F7CB018095832391968C932E1310
:103AA000EACFA2E4B1E041E050E02EE02A0F8D9190
:103AB000E82FE295EF70F0E031A18F70BA0102C0FB
:103AC000660F771F8A95E2F7CB01962F9095932387
:103AD00091A392A1892B82A32A13E9CFE0EAF1E016
:103AE000A0EBB1E0119211921D921D9271E0EA3AA1
:103AF000F707C1F70E94CC2A811102C00E94D72A81
:103B0000279A2F988AE08093800089E18093810032
:103B10008FEF9FEF90938700809386000E94C31CD5
:103B200010929F0110929E0110929D0180916F0052
:103B3000816080936F000E94CC2A811102C00E9494
:103B4000D72A82E090E00E947E2F8093BB0184E020
:103B500090E00E947E2F90E09093AB018093AA01A9
:103B600083E090E00E947E2F682F70E080E090E07C
:103B70000E946A2F0E94C31C8091AC018111DEC09B
:103B80008091BB0181608093BB018BED98E09F9396
:103B90008F930E9435098091BB010F900F9080FF99
:103BA00008C085EC98E09F938F930E9435090F9091
:103BB0000F900E94CC2A811110C08091BB0180FF20
:103BC00008C08DE998E09F938F930E9435090F906C
:103BD0000F900E94D72A0E94C11688E090E00E94B0
:103BE000862F6093D1017093D2018093D30190937B
:103BF000D4016E7FD1F48091BB0180FF08C084E5C1
:103C000098E09F938F930E9435090F900F900E9428
:103C1000C11688E090E00E94862F6093D1017093D6
:103C2000D2018093D3019093D4010E944D158091CD
:103C3000BB0180FF08C08DE398E09F938F930E94A3
:103C400035090F900F908091BB0180FF0FC08091CC
:103C5000D10181701F928F9380E298E09F938F93A0
:103C60000E9435090F900F900F900F908091BB012B
:103C700080FF0FC08091D10186951F928F9385E0C0
:103C800098E09F938F930E9435090F900F900F90AB
:103C90000F908091BB0180FF0EC08091D2011F92D6
:103CA0008F938BEE97E09F938F930E9435090F902F
:103CB0000F900F900F908091BB0180FF0EC08091FC
:103CC000D3011F928F9381ED97E09F938F930E9472
:103CD00035090F900F900F900F908091BB0180FFDE
:103CE0000EC08091D4011F928F9387EB97E09F9332
:103CF0008F930E9435090F900F900F900F90809135
:103D0000BB0180FF0EC08091D5011F928F938BE97C
:103D100097E09F938F930E9435090F900F900F901B
:103D20000F901092CD018091D10180FF04C060E01E
:103D300086950E94591681E08093AC018DE091E058
:103D40009093AE018093AD0183E899E00E949C08B6
:103D500022242394312C8091E401853009F06EC037
:103D60008FE799E00E949C088091E401843009F477
:103D700052C01092AF0120E488E190E00FB6F894B1
:103D8000A895809360000FBE2093600080E00E94A1
:103D9000891A0E94E4128091D701811125C081E027
:103DA0008093D7018091D101982F91709093D60183
:103DB0008E7F8093D1011F921F9282EF98E09F9394
:103DC0008F930E9435090E94E4128FEF90E7A2E0E2
:103DD00081509040A040E1F700C000000E94151300
:103DE0000F900F900F900F9083B7817F846083BFF7
:103DF00083B7816083BF7894889583B78E7F83BFB4
:103E00000FB6F894A8958091600088618093600057
:103E1000109260000FBE8091E301882309F49BCFCC
:103E20000E94D016E0EBF1E081919191892B09F08D
:103E300078C1B1E0EA3BFB07B9F78DCF0E94D016FD
:103E40003CEB832E31E0932E40EBA42E41E0B42EC8
:103E500000E010E00B87F501C190D1905F01D40123
:103E6000ED90FD904D01EC24FD24E114F104B1F43A
:103E70000F5F1F4F0530110569F78FEF8E838F831A
:103E800018860E94712A8160782F9A8789874E81CF
:103E90005F8168858A850E949C117FC08091BB01EB
:103EA00081FD03C080E090E04BC08CE399E00E946C
:103EB0009C0820EB622E21E0722E412C512C5F9247
:103EC0004F92A7E3B9E0BF93AF930E94350984E313
:103ED00099E00E949C08D3018C9111969C91B2E0CC
:103EE0006B0E711C9C870E94D62D282F9C85892FD4
:103EF0002D870E94D62D2D8530E0322F2227F90103
:103F0000E82BCF019F938F93AEE2B9E0BF93AF93BD
:103F10000E9435098CE299E00E949C08FFEF4F1A3D
:103F20005F0A0FB6F894DEBF0FBECDBF55E0451651
:103F3000510429F6B7CF01968E30910509F498CF38
:103F40003101082E02C0660C771C0A94E2F7930137
:103F50002E213F21232B79F389836B856A83C62029
:103F6000D72081E0CD2809F480E08B830E94712A5C
:103F70008160782F9D838C8349815A816B818D81EB
:103F80000E949C11000F111FF801E454FE4F808124
:103F9000918168267926718260821091BA010E940F
:103FA0005D12181739F10E945D12182F8093BA0123
:103FB0008091BB0182FF1EC080FF04C08AE599E0AA
:103FC0000E949C088091BB0180FF0CC01F921F9330
:103FD00085E599E09F938F930E9435090F900F908C
:103FE0000F900F908091BB0180FF04C083E599E0A2
:103FF0000E949C088091CD01882309F4ACCE809169
:10400000CC01E091D101E695E81BE093C801823034
:1040100049F4F0E0E558F64FE4910E2F10E021E36B
:1040200035E149C0863049F4F0E0E858F64FE491B4
:104030000E2F10E021E235E13EC0893051F4E695C3
:10404000F0E0EB58F64FE4910E2F10E028E834E151
:1040500032C08F3051F4E695F0E0EE58F64FE4911F
:104060000E2F10E028E134E126C0853149F4F0E05C
:10407000E159F64FE4910E2F10E02AEB33E11BC01B
:10408000883181F0833239F4EDE6F9E0059114913D
:1040900026EC34E110C0843251F404EF11E02DE439
:1040A00033E109C008EE13E025E833E104C000ED78
:1040B00017E02CE930E18091C9018823A9F0109222
:1040C000C9012D873C870E94712AA801409550950F
:1040D000840F951F9093C7018093C6011092CB0166
:1040E0001092CA013C852D858091C6019091C7012F
:1040F0002D873C870E94472A2D853C858017910794
:1041000008F429CEE091C601F091C7010E0F1F1FE0
:104110001093C7010093C60186EC91E0F90109955F
:104120001ACE80E189BD82E189BD09B400FEFDCFD0
:104130008091D8008F7D8093D8008091E0008260CC
:104140008093E0008091E00081FDFCCF04CECF930E
:10415000C82F1F928F9386E997E09F938F930E94B9
:10416000350981E090E0A0E0B0E0BC01CD0104C0E1
:10417000660F771F881F991FCA95D2F70E946A2F72
:104180000F900F900F900F90CF910C943428CF92F6
:10419000DF92FF920F931F93CF93DF931F92CDB7C0
:1041A000DEB7F82E8B0199830E94BD1B9981811186
:1041B0001CC0CF2CD92E01151105B1F08091E8005B
:1041C00085FD0AC08091E8008E778093E8000E9408
:1041D000BD1B882381F309C0F60181916F01809393
:1041E000F10001501109E7CF80E00F90DF91CF91EE
:1041F0001F910F91FF90DF90CF9008951F93CF9361
:10420000DF93CDB7DEB7AA970FB6F894DEBF0FBE27
:10421000CDBFE6EEF1E088E08E0F9091F100919332
:104220008E13FBCF8091E701833009F460C030F436
:10423000813071F0823009F49AC0B1C08A3009F43B
:1042400086C08B3009F46BC0893009F0A8C020C04B
:104250008091E601813A09F0A2C08091E800877F51
:104260008093E8008091EA019091EB01892B21F481
:1042700068E08AED91E003C060E080E090E070E0EB
:104280000E94431C8091E8008B778093E80087C0F0
:104290008091E601813209F082C08091EA0190911B
:1042A000EB01029708F07BC08091E800877F809344
:1042B000E8008091E80082FD05C08091E401811151
:1042C000F8CF6DC02091F3008091F20090E0922B26
:1042D000029729F48091F1008B7F813021F4809145
:1042E000F1008093D9018091E8008B7754C08091D0
:1042F000E601813A09F053C08091EA019091EB0107
:10430000892B09F04CC08091E800877F8093E800FA
:104310008091E80080FFFCCF8091170137C0809129
:10432000E6018132E1F58091EA019091EB01892B60
:10433000B1F58091E800877F8093E8000E94EF1B31
:104340008091E801809317010E94342828C0809151
:10435000E601813221F58091E800877F8093E800B3
:104360000E94EF1B8091E9018093D80118C08091D1
:10437000E601813AA1F48091E800877F8093E8000C
:104380008091E80080FFFCCF8091D8018093F100FC
:104390008091E8008E778093E8000E94EF1B809167
:1043A000E80083FFE2C18091E6019091E701492F87
:1043B00050E04A30510508F0D8C1FA01E557FF4FE7
:1043C0000C942C30803821F0823809F0CEC108C01E
:1043D0008091E2019091E301992389F082600FC0FE
:1043E0008091EA018F70873008F0BFC18093E900A7
:1043F0008091EB0085FB882780F91092E90090916D
:10440000E800977F9093E8008093F1001092F1000C
:104410007FC1282F2D7F09F0A8C1882319F0823091
:1044200061F0A3C18091E801813009F09EC1933011
:1044300009F080E08093E3012EC08091E8018111B2
:104440002AC08091EA018F702FEF280F263008F0E4
:104450008CC18093E9002091EB0020FF1CC09330B9
:1044600021F48091EB00806214C09091EB00906188
:104470009093EB0021E030E0A90102C0440F551FEA
:104480008A95E2F74093EA001092EA008091EB00EF
:1044900088608093EB001092E9008091E800877FAC
:1044A0008093E8000E94EF1B60C181115EC11091F2
:1044B000E8011F778091E3008078812B8093E300EF
:1044C0008091E800877F8093E8000E94EF1B809135
:1044D000E80080FFFCCF8091E30080688093E300D8
:1044E000111102C082E001C083E08093E4013DC16C
:1044F0008058823008F039C12091E8013091E901FB
:104500002C3D53E0350779F583E08A838AE289837D
:104510004FB7F894DE01139620E03EE051E2E32F1E
:10452000F0E050935700E49120FF03C0E295EF7054
:104530003F5FEF708E2F90E0EA3010F0C79601C019
:10454000C0968D939D932F5F243149F74FBF809183
:10455000E800877F8093E8006AE270E0CE01019670
:104560000E94431CC4C08091EA019091EB01432F4B
:10457000552743305105B9F06CF44130510509F429
:1045800003C14230510509F0F0C08BE590E0E9E746
:10459000FAE05BC04132510509F434C042325105A2
:1045A00009F43FC0E2C0C901992781309105D1F0DB
:1045B0005CF4892B09F0D9C0ECE1FBE0E4918E2F8B
:1045C00090E0ECE1FBE03EC08230910599F003976A
:1045D00009F0CBC0E6EEFAE0E4918E2F90E0E6EE33
:1045E000FAE030C0E0E0FBE0E4918E2F90E0E0E004
:1045F000FBE028C0ECEEFAE0E4918E2F90E0ECEEC8
:10460000FAE020C08330910508F0AFC0880F991FF1
:10461000FC01E75AFE4F0190F081E02D89E090E027
:1046200014C08330910508F0A0C0FC01EE0FFF1FFD
:10463000ED5AFE4F0190F081E02DDC01A05BBE4FF2
:104640008C9190E0009709F490C02091E800277FBA
:104650002093E8002091EC013091ED0128173907F3
:1046600008F4C90140E0009789F12091E401222378
:1046700009F43DC02530D9F12091E80023FD37C071
:104680002091E80022FD2FC02091E80020FFEBCF11
:104690004091F3002091F20030E0342B009759F064
:1046A0002830310540F444914093F1003196019750
:1046B0002F5F3F4FF3CF41E02830310509F040E054
:1046C0002091E8002E772093E800CDCF4111CDCF87
:1046D0000AC08091E401882351F0853041F0809137
:1046E000E80083FD04C08091E80082FFF2CF809152
:1046F000E8008B778093E80038C08038B1F580916E
:10470000E800877F8093E8008091E5018093F100C5
:104710008091E8008E77C4CE811127C01091E80106
:10472000123018F58091E800877F8093E80010939D
:10473000E5010E94EF1B111106C08091E30087FD87
:1047400002C081E001C084E08093E40142E061ECBA
:1047500081E00E940E1C42E261EC82E00E940E1C8D
:1047600042E261EC83E00E940E1C8091E80083FF2E
:1047700010C08091E800877F8093E8008091EB0073
:1047800080628093EB0005C082E190E0E4EDFAE006
:104790005CCFAA960FB6F894DEBF0FBECDBFDF91F7
:1047A000CF911F9108951F920F920FB60F9211246F
:1047B0002F933F934F935F936F937F938F939F9329
:1047C000AF93BF93CF93DF93EF93FF93C091E90033
:1047D000CF708091EC00D82FD17080FDD0E810927E
:1047E000E9008091F000877F8093F00078940E9428
:1047F000FE201092E9008091F00088608093F00024
:10480000CD2BCF70C093E900FF91EF91DF91CF9155
:10481000BF91AF919F918F917F916F915F914F91D8
:104820003F912F910F900FBE0F901F901895E8EDBC
:10483000F0E080818E7F80831092E2001092DA0097
:104840001092E100A0EEB0E08C9181608C938081A9
:104850008F77808319BCA7EDB0E08C918E7F8C930D
:1048600080818F7E80831092D0010895CF92DF9255
:10487000EF92FF920F931F93CF93DF93C8EDD0E099
:1048800088818F7E8883E7EDF0E08081816080837E
:1048900084E082BF81E08093D00188818E7F88830D
:1048A00002EE10E0F80110821092DA0081EEC82EBC
:1048B000D12CF601108288818F7788838881806867
:1048C000888388818F7D888319BC1092E4011092BF
:1048D000E5011092E3011092E20190EEE92EF12C35
:1048E000F70180818B7F808388818160888342E0AB
:1048F00060E080E00E940E1CF60180818E7F808344
:10490000F801808181608083808188608083F701E5
:1049100080818E7F8083888180618883DF91CF91C1
:104920001F910F91FF90EF90DF90CF9008951F920D
:104930000F920FB60F9211242F933F934F935F93D3
:104940006F937F938F939F93AF93BF93EF93FF9357
:104950008091E10082FF49C08091E20082FF45C062
:104960008091E1008B7F8093E1002091CF012F5F48
:10497000822F62E30E94D62F992319F02093CF0152
:1049800034C01092CF018091CE01882371F18091C3
:10499000E401843041F58091E9008F702091EC00B2
:1049A000922F917020FD90E8892B93E09093E9007D
:1049B0009091EB0090FF14C09091EE0097FF10C013
:1049C0009091E80095FF03C01092F100F9CF90910B
:1049D000E80090FF05C09091E8009E779093E80072
:1049E0008F708093E9001092CE018091DA0080FFF1
:1049F00032C08091D80080FF2EC08091DA008E7F77
:104A00008093DA008091D90080FF1CC080E189BDCD
:104A100082E189BD09B400FEFDCF81E08093E4010D
:104A20008CE29AE00E949C088091D001811113C011
:104A30000E9417240E9436248091E20084608093B3
:104A4000E20009C019BC1092E40180E39AE00E94E0
:104A50009C081092D0018091E10080FF1BC08091E2
:104A6000E20080FF17C08091E2008E7F8093E20019
:104A70008091E20080618093E2008091D8008062A2
:104A80008093D80019BC85E08093E40184E39AE028
:104A90000E949C088091E10084FF58C08091E20050
:104AA00084FF54C080E189BD82E189BD09B400FE64
:104AB000FDCF8091D8008F7D8093D8008091E10058
:104AC0008F7E8093E1008091E2008F7E8093E200F0
:104AD0008091E20081608093E2008091E50188236B
:104AE00011F084E007C08091E30087FD02C081E0FF
:104AF00001C083E08093E40181E79AE00E949C0872
:104B00000E9434280E94C31C0E945D121092D7019B
:104B10008091D6018823C1F08091D101816080937A
:104B2000D1011F9281E08F9388E39AE09F938F9346
:104B30000E9435098091D10160E086950E94591646
:104B40000F900F900F900F900E94F3128091E10050
:104B500083FF2BC08091E20083FF27C08091E1009A
:104B6000877F8093E10082E08093E4011092E50169
:104B70008091E1008E7F8093E1008091E2008E7F42
:104B80008093E2008091E20080618093E20042E045
:104B900060E080E00E940E1C8091F00088608093AD
:104BA000F00085E79AE00E949C08FF91EF91BF9189
:104BB000AF919F918F917F916F915F914F913F91B5
:104BC0002F910F900FBE0F901F9018958091FB01B1
:104BD00082958F7009F054C08091F801882309F400
:104BE0004FC080912D02A091FC016091F60170915F
:104BF000F7014091F9015091FA01B6E08A1709F4E2
:104C00003FC090E041155105C1F17F3F11F46F3F66
:104C1000A1F1B89FF001B99FF00D1124E350FE4FB0
:104C2000218172132AC02081621327C022812111A1
:104C300024C0238134812417350710F42150310911
:104C4000241B350B283C3105C0F42091FB012F704B
:104C500020612093FB0126E0289FF001299FF00DA1
:104C60001124EE5FFD4F80818F708061808386EF1D
:104C700091E00E943E090C94742F01968770BECF7C
:104C800008950E949B2E292F2F7092959F70E92FD7
:104C9000F0E03297EE30F105B8F4EB56FF4F0C948C
:104CA0002C30803F99F018F4803E70F40FC0843FA0
:104CB00059F40CC0803E50F0813F31F407C0822F80
:104CC000869586958695089580E0089581E00895FB
:104CD000BF92CF92DF92EF92FF920F931F93CF93E9
:104CE000DF93CDB7DEB761970FB6F894DEBF0FBE86
:104CF000CDBF8C0185E0F801DE011D9601900D927B
:104D00008A95E1F7D8013C9111962C911197129652
:104D1000EC9012971396CD90DC9014975091F60179
:104D20006091F7018091F9019091FA01009709F4DF
:104D30004FC16F3F19F45F3F09F44AC1B090F801C9
:104D4000BB2009F4ECC04091FB01C816D90628F03D
:104D5000F601E81BF90BCF0104C0809590958C0DEE
:104D60009D1DFF24F394883C910548F0F12C407F71
:104D700009F09FC086EF91E00E943E0921C1842F77
:104D8000807F09F044C0621312C0531310C0E110B9
:104D90000EC04F7040614093FB0186EF91E00E948E
:104DA0003E098091FB01D80115968C932EC0CD2829
:104DB00019F12F3F11F43F3FF9F0FE2CE1101CC018
:104DC00080912D024091FC0156E0841709F458C0EF
:104DD00090E0589FF001599FF00D1124E350FE4FD1
:104DE0006181261306C06081361303C062816111A0
:104DF00003C001968770E9CFFE2CEE2009F415C19F
:104E00008091FB0181608093FB01F12C0EC1621344
:104E10000AC0531308C0E11006C08091FB01D801FD
:104E200015968C93B0C03D872E878D859E850E94F8
:104E300041268823D1F1EE20C1F12091FB01822F80
:104E400082958F7090E0029774F08091F6019091B6
:104E5000F70198878F831986DB86CA862C87CE0157
:104E600007960E943E0986E0F801A6EFB1E00190A6
:104E70000D928A95E1F70E94E625FF24F394D5C0B0
:104E80003D872E878D859E850E949B2E292F2295FA
:104E90002F7030E0223031050CF0BBC09F7009F05C
:104EA000B5C0805E883008F4C0C0C8010E943E09C9
:104EB000E4CF621314C0531312C0E11010C08091EC
:104EC000FB01F8018583C8010E943E0986E0E6EFF8
:104ED000F1E0DF011D928A95E9F7FB2CA6C03D8722
:104EE0002E878D859E850E9441268823F1F2EE2033
:104EF000E1F22091FB01822F82958F7090E0029762
:104F00000CF4B1CF8091F6019091F7019A838983D7
:104F10001B82DD82CC822E83CE010196A2CFC816E1
:104F2000D90638F0C81AD90AB8ECCB16D10450F01B
:104F300007C0809590958C0D9D1D883C910510F0C3
:104F4000F12C3EC0FE2CEE2009F4AFCF621327C037
:104F5000531325C02091FB0120FD18C0822F82959C
:104F60008F70482F50E04115510581F0F8012583DD
:104F70004F30510541F08F5F982F9295907F822F8F
:104F80008F70892B8583C8010E943E0986E0F80155
:104F9000A6EFB1E001900D928A95E1F746C03D87FA
:104FA0002E878D859E850E94412681115CCF809140
:104FB000FB0181608093FB01C8010E943E0935C05E
:104FC000E6EFF1E086E0DF011D928A95E9F72DC05A
:104FD000EE2009F46ACF3D872E878D859E850E943D
:104FE0004126F82E882309F460CF86E0F801A6EF69
:104FF000B1E001900D928A95E1F78091F6019091D0
:10500000F7010E949B2E0E94E6250FC0811149CF17
:105010000CC0243031050CF048CF9F7009F441CF0B
:10502000F8019581907F09F03CCF8F2D61960FB6E6
:10503000F894DEBF0FBECDBFDF91CF911F910F91CE
:10504000FF90EF90DF90CF90BF9008951092610293
:10505000109260020E94F22D80E090E00E944712C0
:1050600080E090E00C9431121092620286E0E0EF52
:10507000F1E0DF011D928A95E9F70C942628882338
:1050800041F08095909162028923809362020C9492
:10509000F22D0895882339F090916202892B809334
:1050A00062020C94F22D0895882309F458C0682FE9
:1050B000823869F40E945D1281FF51C069E38EEE6F
:1050C00091E00E94B22A0E94F22D69E30EC083385B
:1050D00091F40E945D1280FF42C063E58EEE91E084
:1050E0000E94B22A0E94F22D63E58EEE91E00E94AA
:1050F000A62A0C94F22D843869F40E945D1282FF76
:105100002EC067E48EEE91E00E94B22A0E94F22D3A
:1051100067E4EBCF8CEF860F813A38F380E2860F9D
:10512000883070F4677081E090E001C0880F6A9564
:10513000EAF7809590916202892380936202D9CF29
:105140008BE5860F833020F480E090E00C944712CA
:10515000685A673120F480E090E00C943112089591
:10516000CF93882309F447C1C82F8238B1F40E9435
:105170005D1281FD40C169E38EEE91E00E94B22A8A
:105180000E94F22D2FEF81EE94E02150804090405C
:10519000E1F700C0000069E317C08338E1F40E9422
:1051A0005D1280FD28C163E58EEE91E00E94B22A77
:1051B0000E94F22D2FEF81EE94E02150804090402C
:1051C000E1F700C0000063E58EEE91E00E94A62AA0
:1051D000CF910C94F22D8438B1F40E945D1282FDBF
:1051E0000AC167E48EEE91E00E94B22A0E94F22D7D
:1051F0002FEF81EE94E0215080409040E1F700C015
:10520000000067E4E1CF8CEF8C0F813AE0F58091EC
:105210006C02882319F0813049F02AC08091620223
:10522000823259F58C2F0E94292B25C08091620271
:105230008232C1F3C43191F018F4CB3029F011C09F
:10524000C93261F0C83369F481E69EE00E949C088F
:1052500082E29BE00E949C0881E008C010926C02F0
:1052600004C080E29BE00E949C0880E0817003C043
:1052700010926C0202C08111BEC06C2F8EEE91E0C4
:105280000E94B22AA5CF80E28C0F883068F4C770E4
:1052900081E090E001C0880FCA95EAF79091620220
:1052A000892B8093620294CF8BE58C0F833078F446
:1052B000C53A29F0C63A31F083E890E005C081E8AC
:1052C00090E002C082E890E0CF910C94471288E50C
:1052D0008C0F873108F08FC0C83A09F445C0C93A2D
:1052E00009F445C0CA3A09F445C0CB3A09F445C0AF
:1052F000CC3A09F445C0CB3B09F445C0CC3B09F49A
:1053000045C0CD3A09F445C0C03B09F445C0CE3A8A
:1053100009F445C0CF3A09F445C0C13B09F445C082
:10532000C23B09F445C0C33B09F445C0C43B09F482
:1053300045C0C53B09F445C0C63B09F445C0C73B61
:1053400009F445C0C83B09F445C0C93B09F445C050
:10535000CD3B09F445C0CE3B09F445C0CA3B09F436
:1053600045C080E090E044C082EE90E041C089EE0C
:1053700090E03EC08AEE90E03BC085EB90E038C004
:1053800086EB90E035C083EB90E032C084EB90E098
:105390002FC087EB90E02CC08CEC90E029C08DEC06
:1053A00090E026C083E891E023C08AE891E020C025
:1053B00082E991E01DC084E991E01AC081E292E0A7
:1053C00017C083E292E014C084E292E011C085E24B
:1053D00092E00EC086E292E00BC087E292E008C045
:1053E0008FE690E005C080E790E002C08AE292E09C
:1053F000CF910C943112CF91089581E08093E00019
:1054000080E28093D8001092C9008FE19EE401975A
:10541000F1F700C0000087E090EBDC0180936D02A3
:1054200090936E02A0936F02B09370029CE088E1AB
:105430000FB6F894A895809360000FBE909360001B
:10544000FFCF78941F920F920FB60F9211248F9373
:105450009F93AF93BF938091680290916902A0914E
:105460006A02B0916B020196A11DB11D8093680282
:1054700090936902A0936A02B0936B02BF91AF91BF
:105480009F918F910F900FBE0F901F901895CF9204
:10549000DF92EF92FF920F931F932FB7F8944091F2
:1054A00068025091690260916A0270916B022FBF8D
:1054B0006A017B01EE24FF248C0120E030E0C0165D
:1054C000D106E206F30610F4415051099A01281B57
:1054D000390BC9011F910F91FF90EF90DF90CF9092
:1054E00008952FB7F8948091680290916902A09175
:1054F0006A02B0916B022FBF08951F920F920FB6F0
:105500000F9211248F939F93AF93BF938091AF011C
:10551000811113C08091680290916902A0916A0282
:10552000B0916B024196A11DB11D809368029093CA
:105530006902A0936A02B0936B02BF91AF919F91F1
:105540008F910F900FBE0F901F901895FC0132960F
:1055500008962081261301C010823196E817F907BA
:10556000C1F708959C01FC0132969FEF80E04191C4
:10557000461789F09F3F19F4411101C0982F8F5FA2
:105580008630A9F79F3F39F0F901E90FF11D97FD2A
:10559000FA9562830895089580E090E00E948C2F30
:1055A00021E08D3E9E4F09F020E0822F08956DEEA0
:1055B0007EEF80E090E00E94B02F60E082E090E01B
:1055C0000E94922F60E083E090E00E94922F109260
:1055D000640210926502109266021092670260E007
:1055E00084E090E00E94922F60E085E090E00E94CD
:1055F000922F60E086E090E00E94922F6FEF87E0AC
:1056000090E00E94922F40E050E0BA0188E090E0E4
:105610000E94A42F60E08DE090E00E94922F40E075
:1056200050E0BA0188E190E00E94A42F60E087E199
:1056300090E00E94922F40E050E0BA018FE090E0AD
:105640000E94A42F40E050E0BA0183E190E00C9466
:10565000A42FCF938B3109F415C208F0ADC18B3064
:1056600009F4CFC108F083C1863009F4CDC120F41C
:10567000853009F4DBC192C2873009F4E8C1883073
:1056800009F08CC282E890E10E949C088EEA9CE0BE
:105690000E949C0883E090E00E947E2F1F928F93CF
:1056A0008BEA9CE09F938F930E94350989EA9CE0E6
:1056B0000E949C0882E090E00E947E2FC82F86E91D
:1056C0009CE00E949C081F92CF9381E99CE09F93ED
:1056D0008F930E9435098FE89CE00E949C0885E822
:1056E0009CE00E949C088C2F81701F928F9382E80F
:1056F0009CE09F938F930E94350980E89CE00E9474
:105700009C0886E79CE00E949C08C1FB882780F9E2
:105710001F928F9383E79CE09F938F930E9435099C
:1057200081E79CE00E949C0885E69CE00E949C0822
:10573000C2FB882780F91F928F9382E69CE09F939B
:105740008F930E94350980E69CE00E949C0887E5C3
:105750009CE00E949C08C3FBCC27C0F91F92CF930A
:1057600084E59CE09F938F930E94350982E59CE03D
:105770000E949C0884E090E00E947E2FC82F8EE358
:105780009CE00E949C081F92CF9389E39CE09F932A
:105790008F930E94350987E39CE00E949C088EE16C
:1057A0009CE00E949C088C2F81701F928F938BE14C
:1057B0009CE09F938F930E9435098DB79EB780968A
:1057C0000FB6F8949EBF0FBE8DBF89E19CE00E948A
:1057D0009C0882E09CE00E949C08C1FB882780F91D
:1057E0001F928F938FEF9BE09F938F930E943509B9
:1057F0008DEF9BE00E949C088BEE9BE00E949C0832
:10580000C2FB882780F91F928F9388EE9BE09F93BD
:105810008F930E94350986EE9BE00E949C0884EDE0
:105820009BE00E949C08C3FB882780F91F928F93FE
:1058300081ED9BE09F938F930E9435098FEC9BE055
:105840000E949C0885EC9BE00E949C08C4FB882772
:1058500080F91F928F9382EC9BE09F938F930E941D
:10586000350980EC9BE00E949C088EEA9BE00E9438
:105870009C08C5FB882780F91F928F938BEA9BE0D9
:105880009F938F930E94350989EA9BE00E949C08B0
:105890008DE89BE00E949C08C6FB882780F91F9238
:1058A0008F938AE89BE09F938F930E94350988E845
:1058B0009BE00E949C0880E89BE00E949C08C7FB3C
:1058C000CC27C0F91F92CF938DE79BE09F938F93D6
:1058D0000E9435098BE79BE00E949C0886E090E0DF
:1058E0000E947E2FC82F84E69BE00E949C081F9296
:1058F000CF938FE59BE09F938F930E9435098DB7DF
:105900009EB780960FB6F8949EBF0FBE8DBF8DE5F3
:105910009BE00E949C0883E59BE00E949C088C2FE2
:1059200081701F928F9380E59BE09F938F930E94DD
:1059300035098EE49BE00E949C0885E49BE00E9470
:105940009C08C6951F92CF9382E49BE09F938F9310
:105950000E94350980E49BE00E949C088DB79EB7A9
:1059600008960FB6F8949EBF0FBE8DBF15C180314B
:1059700009F4B0C020F48E3009F498C00FC186310C
:1059800009F4C5C0893109F009C18BE69FE00E9486
:105990009C088EE49FE00E949C0881E19FE00E94A9
:1059A0009C0887ED9EE00E949C088AEA9EE00E9487
:1059B0009C088CE79EE0A8C08A32E1F060F4873250
:1059C00009F4E7C028F48E3108F4E8C08D51E2C034
:1059D000893261F1E3C0833448F48A3308F0D7C0D8
:1059E000853309F4D6C0883361F0D8C0833409F414
:1059F000D0C0D4C081E790E10E949C080E94D72AC1
:105A0000CBC08EEB9CE080C08091BB01817F8E7FFC
:105A10008093BB0181E69EE00E949C088DE690E1A8
:105A20000E949C0881E080936C02B6C00E943428DA
:105A300081E590E10E949C089FEF23ED80E3915067
:105A400020408040E1F700C000000E94FD298091C5
:105A5000BB01C82FC095C170C0FB80F98093BB010A
:105A6000CC2329F085E490E10E949C089CC088E347
:105A700090E10E949C088091BB01897F877F809381
:105A8000BB018AC09091BB0191FBCC27C0F981E09A
:105A9000C827892FC0FB81F98093BB01CC2319F063
:105AA0008BE290E127C08DE190E12EC09091BB0187
:105AB00092FBCC27C0F981E0C827892FC0FB82F96F
:105AC0008093BB01CC2319F08EE090E113C08EEFE0
:105AD0009FE01AC09091BB0193FBCC27C0F981E0F5
